:100000000C9485020C9443260C941C260C94DA273D
:100010000C94DA270C94DA270C94AD020C946A261F
:100020000C94AD020C94AD020C94AD020C941E27FE
:100030000C94AD020C94AD020C94AD020C94AD0284
:100040000C94D2250C94AD020C94EC260C94C6268C
:100050000C94AD020C94AD020C94AD020C94AD0264
:100060000C9452280C94AD024572726F7220696E26
:10007000205350495F4441544120636F6D6D616E60
:10008000643A20656D707479206D6573736167657E
:10009000004572726F7220656E61626C696E6720D6
:1000A000535049206D6F6465005350492E62656757
:1000B000696E2829005350495F424547494E3A200E
:1000C0004F6E6C79206368616E6E656C20302073B2
:1000D0007570706F72746564004E65772053504977
:1000E0002064657669636520256420616C6C6F63AC
:1000F00061746564207769746820696E646578202E
:10010000256420616E642043532025642C20636C99
:100110006F636B20737065656420256420487A00E6
:100120005350495F4445564943455F434F4E464906
:10013000473A204F6E6C79206368616E6E656C2063
:100140003020737570706F727465643A200053507C
:10015000495F4445564943455F434F4E4649473AF8
:10016000204F6E6C7920382062697420776F72643A
:100170007320737570706F72746564005350495FBB
:100180004445564943455F434F4E4649473A204D03
:100190006178206E756D626572206F662064657689
:1001A00069636573206578636565646564004E6F97
:1001B0007420656E6F756768206461746120696E74
:1001C000205350495F4445564943455F434F4E468F
:1001D0004947206D65737361676500556E6B6E6F7F
:1001E000776E2053504920636F6D6D616E643A20C5
:1001F000005350495F5452414E534645523A2053A2
:10020000656E6420627566666572206E6F74206C20
:100210006172676520656E6F756768005350495F4E
:100220005452414E534645523A20556E6B6E6F778D
:100230006E206465766963654964207370656369DF
:10024000666965643A20004E6F7420656E6F75674D
:1002500068206461746120696E20535049206D6587
:10026000737361676500535049206E6F7420656E2B
:1002700061626C65642E005350492E656E642829B6
:10028000004572726F7220696E2044485420636F7B
:100290006D6D616E643A204E6F7420656E6F756788
:1002A0006820706172616D65746572730045727269
:1002B0006F7220696E20536F6E617220636F6D6D77
:1002C000616E643A204E6F7420656E6F75676820AA
:1002D000706172616D6574657273004572726F72E0
:1002E00020696E2042557A7A657220636F6D6D6168
:1002F0006E643A204E6F7420656E6F75676820706B
:100300006172616D657465727320666F72206275CB
:100310007A7A657220746F6E65004572726F722012
:10032000696E2042757A7A657220636F6D6D616EB9
:10033000643A204E6F7420656E6F75676820706137
:1003400072616D657465727300556E6B6E6F776E5A
:100350002070696E206D6F646500556E68616E6413
:100360006C656420737973657820636F6D6D616E61
:10037000643A203078257820286C656E3A20256410
:1003800029004E6F7420656E6F75676820627974FE
:10039000657320696E2053595354454D5F56415241
:1003A0004941424C45206D65737361676500436147
:1003B0006E6E6F74206368616E67652070696E2071
:1003C0006E756D626572207768696C652061637413
:1003D00069766500496E76616C69642070696E208B
:1003E0006E756D62657220666F72206672657175DA
:1003F000656E637920636F6D6D616E640049324391
:100400003A20546F6F206D616E7920627974657344
:1004100020726563656976656400746F6F206D6135
:100420006E7920717565726965730031302D62696E
:10043000742061646472657373696E67206E6F7493
:1004400020737570706F72746564005370656369B2
:1004500066792073657269616C20525820616E6400
:100460002054582070696E730002426F6F74696E79
:1004700067206465766963652E205374616E64201D
:1004800062792E2E2E0044697363617264696E670F
:1004900020696E707574206D6573736167652C20BB
:1004A0006F7574206F662062756666657200000065
:1004B0000000240027002A000000000800020100BC
:1004C000000304070000000000000000000000001E
:1004D00023002600290000000000250028002B0032
:1004E00004040404040404040202020202020303DA
:1004F00003030303010204081020408001020408E2
:100500001020010204081020D62911241FBECFEFAD
:10051000D8E0DEBFCDBF12E0A0E0B1E0E4E1FBE651
:1005200002C005900D92A437B107D9F726E0A4E7E1
:10053000B2E001C01D92A238B207E1F712E0C5E8AF
:10054000D2E004C02197FE010E94DF30C438D107F9
:10055000C9F70E947F2B0C9488350C940000282F3B
:1005600030E028593B4FF901E45BFF4F90819F3702
:1005700069F0205A3F4FD9011C926083E091E40456
:10058000F091E504309711F070E009940895A0917E
:100590006804B0916904ED91FC9111970190F0818C
:1005A000E02D682FCD010994809168049091690431
:1005B000DC01ED91FC910190F081E02D60EF099458
:1005C000CF93DF93C8E6D4E088819981DC01ED9177
:1005D000FC910190F081E02D67EF09958881998168
:1005E000DC01ED91FC910680F781E02DDF91CF9148
:1005F00009940F931F93FC012081418150E070E02A
:1006000060E087E0440F551F661F771F8A95D1F77A
:10061000828190E0B0E0A0E03EE0880F991FAA1F21
:10062000BB1F3A95D1F7842B952BA62BB72BAC018A
:10063000BD01422B038110E030E020E0A5E1000F76
:10064000111F221F331FAA95D1F7042B152B262B20
:10065000372B848190E0B0E0A0E0BC01CD01BCE18B
:10066000660F771F881F991FBA95D1F7602B712BE2
:10067000822B932B1F910F9108950F931F93CF936C
:10068000DF93EC0108E614E0D8018D919C916C2F6A
:100690006F77DC01ED91FC910190F081E02D0995DF
:1006A000F80180819181CC0FCD2FCC1FDD0B6C2FF9
:1006B0006F77DC01ED91FC910190F081E02DDF91ED
:1006C000CF911F910F910994CF92DF92EF92FF92F9
:1006D0006B017C01862F8F770E94C702D701C6016C
:1006E00027E0B695A795979587952A95D1F78F77A7
:1006F0000E94C702D701C6013EE0B695A79597951F
:1007000087953A95D1F78F770E94C702D701C60126
:1007100045E1B695A795979587954A95D1F78F7737
:100720000E94C702D701C6015CE1B695A7959795CF
:1007300087955A95D1F7FF90EF90DF90CF900C946A
:10074000C702CF93DF93C8E6D4E088819981DC01AA
:10075000ED91FC910190F081E02D69EF0995888180
:100760009981DC01ED91FC910190F081E02D62E036
:10077000099588819981DC01ED91FC910190F081CE
:10078000E02D67E0DF91CF910994CF92DF92EF9255
:10079000FF92CF93DF93EC016A017B01E889F9892D
:1007A00082E08083C11481EED806E104F104A1F057
:1007B00060E079E08DE390E0A70196010E94E62FCA
:1007C000215031094109510956954795379527958B
:1007D000211580E1380798F0E889F989108260E8EE
:1007E00074E88EE190E0A70196010E94E62F215067
:1007F0003109410951095695479537952795EC855B
:10080000FD853083EE85FF852083188EEC89FD8978
:1008100086E08083EA89FB89808180618083EA8920
:10082000FB89808188608083EA89FB898081806878
:100830008083EA89FB8980818F7D8083DF91CF91DE
:10084000FF90EF90DF90CF900895E0915105E53152
:1008500058F421E02E0F20935105F0E0EE0FFF1F1A
:10086000E95DFA4F91838083089581E08093DC04F1
:1008700010926E0410926F0410927004E1E7F4E09D
:10088000119284E0E13BF807D9F71092B10410927D
:10089000B3041092B204E091E804F091E9043097B7
:1008A00009F009951092DC0408950F931F93CF93DC
:1008B000C82F8B01803198F480916804909169046D
:1008C0006C2F606EDC01ED91FC910190F081E02DC8
:1008D0000995C801CF911F910F910C943D030E947F
:1008E000D4028091680490916904DC01ED91FC913F
:1008F0000190F081E02D6FE6099580916804909158
:100900006904DC01ED91FC910190F081E02D6C2FE8
:100910000995C8010E943D03CF911F910F910C943E
:10092000E002CF93DF9300D01F92CDB7DEB78F7078
:1009300080698983862F8F778A83660F672F661F6A
:10094000770B6B838091680490916904DC01ED91D1
:10095000FC910280F381E02D43E050E0BE016F5F27
:100960007F4F09950F900F900F90DF91CF910895D1
:10097000833081F028F4813099F08230A9F0089515
:100980008730A9F08830C9F08430B1F480918000BC
:100990008F7D03C0809180008F77809380000895C1
:1009A00084B58F7784BD089584B58F7DFBCF80910A
:1009B000B0008F778093B00008958091B0008F7D54
:1009C000F9CFCF93DF93282F30E0F901E854FB4FA4
:1009D0008491F901EC50FB4FD491F901E052FB4FA7
:1009E000C491CC23A1F081110E94B804EC2FF0E057
:1009F000EE0FFF1FE453FB4FA591B491EC91ED2353
:100A000081E090E009F480E0DF91CF91089580E0EB
:100A100090E0FACF1F93CF93DF93282F30E0F901B6
:100A2000E854FB4F8491F901EC50FB4FD491F9014C
:100A3000E052FB4FC491CC23A9F0162F81110E94E4
:100A4000B804EC2FF0E0EE0FFF1FEA52FB4FA59128
:100A5000B4918FB7F894EC91111108C0D095DE23B2
:100A6000DC938FBFDF91CF911F910895DE2BF8CFDC
:100A7000CF93DF9390E0FC01EC50FB4F2491805228
:100A80009B4FFC0184918823C9F090E0880F991F47
:100A9000FC01E255FB4FA591B491FC01EA52FB4FDA
:100AA000C591D49161110DC09FB7F8948C91209598
:100AB00082238C938881282328839FBFDF91CF9145
:100AC0000895623051F49FB7F8943C91822F80953D
:100AD00083238C93E8812E2BEFCF8FB7F894EC9182
:100AE0002E2B2C938FBFEACF8E3008F08E5087705C
:100AF000806480937C0080917A00806480937A0087
:100B000080917A0086FDFCCF8091780090917900E9
:100B100008953FB7F8948091610390916203A0918A
:100B20006303B091640326B5A89B05C02F3F19F05D
:100B30000196A11DB11D3FBFBA2FA92F982F88275D
:100B4000BC01CD01620F711D811D911D42E0660F38
:100B5000771F881F991F4A95D1F708958F929F920A
:100B6000AF92BF92CF92DF92EF92FF926B017C0126
:100B70000E9489054B015C01C114D104E104F10418
:100B8000B9F00E948905681979098A099B09683EAC
:100B900073408105910580F321E0C21AD108E10874
:100BA000F10888EE880E83E0981EA11CB11CE4CFEA
:100BB000FF90EF90DF90CF90BF90AF909F908F907D
:100BC00008952FB7F89460915D0370915E03809152
:100BD0005F03909160032FBF08958F929F92AF9211
:100BE000BF92CF92DF92EF92FF92CF93C82F0E94D5
:100BF000E1054B015C01F894C0905E04D0905F0465
:100C0000E0906004F090610478940E94D4028DE733
:100C10000E94C70282E00E94C7028C2F0E94C70276
:100C2000C501B4010E946403C701B6010E946403B8
:100C3000CF91FF90EF90DF90CF90BF90AF909F90BB
:100C40008F900C94E002E82FF0E0882359F0813077
:100C500059F0EE0FFF1FEF5FFE4F86E396E09183A2
:100C600080830895E898F5CFE998F3CF089590919F
:100C7000000189130BC0E9E6F4E0E4919FEF909343
:100C80000001E13049F028F0E23061F060E00C94BE
:100C90000A0510926E00FACF90916F009D7F90939D
:100CA0006F00F4CF909170009D7F9093700091E061
:100CB0009093B0009091B100987F94609093B100B0
:100CC0001092B300E3CFAF92BF92CF92DF92EF9238
:100CD000FF920F931F93CF93DF936C017B018B01E6
:100CE000040F151FEB015E01AE18BF08C017D10736
:100CF00059F06991D601ED91FC910190F081E02DC0
:100D0000C6010995892B79F7C501DF91CF911F9114
:100D10000F91FF90EF90DF90CF90BF90AF9008952C
:100D2000FC01538D448D252F30E0842F90E0821BF1
:100D3000930B541710F0CF96089501970895FC0176
:100D4000918D828D981761F0A28DAE0FBF2FB11DCE
:100D50005D968C91928D9F5F9F73928F90E0089526
:100D60008FEF9FEF0895FC01918D828D981731F0E0
:100D7000828DE80FF11D858D90E008958FEF9FEF34
:100D80000895FC01918D228D892F90E0805C9F4F0A
:100D9000821B91098F739927089585EB93E00E9438
:100DA000C10621E0892B09F420E0822F089580E01C
:100DB00090E0892B29F00E94CD0681110C9400004F
:100DC0000895FC01A48DA80FB92FB11DA35ABF4FE0
:100DD0002C91848D90E001968F739927848FA6893A
:100DE000B7892C93A089B1898C91837080648C938E
:100DF000938D848D981306C00288F389E02D80813D
:100E00008F7D80830895EF92FF920F931F93CF936E
:100E1000DF93EC0181E0888F9B8D8C8D98131AC035
:100E2000E889F989808185FF15C09FB7F894EE891C
:100E3000FF896083E889F989808183708064808379
:100E40009FBF81E090E0DF91CF911F910F91FF90C4
:100E5000EF900895F62E0B8D10E00F5F1F4F0F736C
:100E60001127E02E8C8D8E110CC00FB607FCFACF27
:100E7000E889F989808185FFF5CFCE010E94E106DE
:100E8000F1CFEB8DEC0FFD2FF11DE35AFF4FF082F8
:100E90009FB7F8940B8FEA89FB8980818062CFCF5E
:100EA0000F931F93CF93DF938C01D0E0C0E0F80144
:100EB000EC0FFD1F6491662341F085EB93E00E94E7
:100EC0000307892B11F02196F2CFCE01DF91CF914C
:100ED0001F910F910895CF93DF93EC01888D8823A4
:100EE000B9F0AA89BB89E889F9898C9185FD03C08D
:100EF000808186FD0DC00FB607FCF7CF8C9185FF72
:100F0000F2CF808185FFEDCFCE010E94E106E9CFCF
:100F1000DF91CF910895DF92EF92FF920F931F938D
:100F2000CF93DF93EC01D62E7A01890188818C3032
:100F300008F067C061E08D2D0E9438058881282F58
:100F400030E0F901EE0FFF1FE20FF31FEF5CFC4FE3
:100F50009D2D9F736081607C692B608320E232E06D
:100F60002E193F0937FF02C02D5F3F4F359527955A
:100F700035952795298320E639E0201B310B37FF73
:100F800002C02D5F3F4F35952795359527952A83CC
:100F90002CE0622F0E94AB30829FB001112430E020
:100FA00020E0AB01420F531FFA01EE0FFF1FE40FC9
:100FB000F51FEF5CFC4F908196FD16C02F5F3F4FF1
:100FC0002C30310571F781110FC01092800082E042
:100FD000809381001092850010928400B19A8091D4
:100FE0006F00826080936F00E8818E2F90E0FC019B
:100FF000EE0FFF1FE80FF91FEF5CFC4F808180644C
:1010000080838881DF91CF911F910F91FF90EF90A6
:10101000DF9008950F931F93CF93DF93EC018A81A4
:10102000882321F061E088810E94380560E0888192
:101030000E940A0583E090E00197F1F761E0888162
:101040000E940A0583E290E00197F1F760E0888151
:101050000E940A058A81882321F060E088810E942D
:1010600038050E9489056B837C838D839E838981EB
:101070000E94E104892B99F40E9489050B811C814F
:101080002D813E81601B710B820B930B0F811885A4
:1010900029853A85061717072807390740F70E9460
:1010A00089056B837C838D839E8389810E94E10403
:1010B000892B99F00E9489050B811C812D813E812D
:1010C000601B710B820B930B0F81188529853A8564
:1010D000061717072807390740F70E9489052B8153
:1010E0003C81CB01821B930BDF91CF911F910F911C
:1010F0000895CF92DF92EF92FF92CF93DF93DC01BE
:101100001796CC911797D0E06111DC2F18962C918F
:10111000189730E0220F331F24533B4F50E040E03C
:10112000F90185919491FC01F080BA0190E080E092
:10113000EF2DEC23ED1310C04F5F5F4F1D96CD9048
:10114000DD90ED90FC9050976C157D058E059F0508
:1011500038F36FEF7FEFCB01DF91CF91FF90EF90EE
:10116000DF90CF9008958F929F92AF92BF92CF92CF
:10117000DF92EF92FF920F931F93CF93DF93CDB740
:10118000DEB7C054D1400FB6F894DEBF0FBECDBF5E
:101190008C010E94E105F801C184D284E384F484C7
:1011A0009B01AC012C193D094E095F0969017A01C7
:1011B00030EDC31637E0D306E104F104A8F48189C9
:1011C000C05CDE4F0FB6F894DEBF0FBECDBFDF911F
:1011D000CF911F910F91FF90EF90DF90CF90BF9034
:1011E000AF909F908F9008956187728783879487CF
:1011F0001482138212821182108262E085810E9421
:10120000380561E070E080E090E00E94AE0561E0AA
:10121000F80185810E94380560E0F80185810E940F
:101220000A05F80186818551823028F58BE291E12B
:101230000197F1F762E0F80185810E943805F80115
:10124000828990E08230910538F0880F991F880FCD
:10125000991F05970197F1F7F89460E0C8010E9483
:1012600079086F3F7F4F8F4F9F4F61F4F801118ACC
:10127000789480E0A5CF64E170E080E090E00E9487
:10128000AE05D8CF61E0C8010E9479086F3F7F4F5B
:101290008F4F9F4F59F39E012F5F3F4F79015E01A2
:1012A0003FEBA31A3EEFB30A670160E0C8010E945A
:1012B0007908F601608371838283938361E0C801BA
:1012C0000E947908F6016483758386839783F8E02A
:1012D000CF0ED11CCA14DB0441F7789430E020E033
:1012E000F70180809180A280B3804481558166811E
:1012F0007781FFEF8F169F06AF06BF0631F04F3F95
:101300008FEF58076807780719F4F801118AB1CFF1
:10131000F90183E0F595E7958A95E1F7E00FF11F74
:101320008081880F84169506A606B706F0F08083A4
:101330002F5F3F4FF8E0EF0EF11C2832310581F6A8
:10134000F801448120818181280F3327331F828156
:10135000280F311D8381820F932F911D99274817E4
:10136000190699F681E0818B2BCF8160E0CF209127
:101370002D0330912E032817390771F490912C0317
:1013800080912B03981741F0E0912C03F0E0E55198
:10139000FD4F808190E008958FEF9FEF08950895AD
:1013A000EF92FF920F931F93CF93DF93DC015C9634
:1013B000ED90FC905D97E114F10479F481E090E008
:1013C00013969C938E93129790E080E0DF91CF91DB
:1013D0001F910F91FF90EF9008955196ED91FC9120
:1013E000529750968C915097982F90950FB75E9684
:1013F0002C915E97122F127021FD6095F894208138
:10140000112319F1282B2083E7012197F1F728E018
:10141000462F50E0308160FF1AC0382B3083E7013F
:101420002197F1F7BA0175956795215089F7112336
:1014300081F08081892380830FBF5C968D919C9180
:101440000197F1F781E090E0C1CF2923DCCF392368
:10145000E5CF9081892BEFCF20912D0330912E0382
:101460002817390761F480912B0320912C0390E019
:10147000805C9F4F821B91098F739927089590E09C
:1014800080E0089520912D0330912E03281739070D
:10149000B9F490912C0380912B03981789F0E09177
:1014A0002C03F0E0E551FD4F808120912C0330E0CA
:1014B0002F5F3F4F2F73332720932C0390E0089525
:1014C0008FEF9FEF0895E0912D03F0912E03E81721
:1014D000F90769F4A389B4899C918589809589234A
:1014E0008C9310922E0310922D0381E0089580E0DA
:1014F0000895CF93DF93EC018A8D9B8D892B01F1A9
:1015000080912D0390912E038C179D07C9F00097B1
:1015100011F00E94630A8E8D8E7F8E8F10922B03A6
:1015200010922C03D0932E03C0932D03EB89FC89DA
:1015300080819D89892B808381E0DF91CF910895FF
:1015400080E0FBCF2091C602260F3327331F2132C4
:101550003105ECF420918B03FC0190E080E0243015
:1015600069F082E00895A091C6022191AC014C552A
:101570005D4FA40FB52FB11D2C930196861798F3DC
:101580008091C602680F6093C60280E0089581E0F2
:101590000895ECEBF0E080818A7B808360E082E15B
:1015A0000E940A0560E083E10C940A0510928B0307
:1015B00081E080938A031092650361E082E10E94DA
:1015C0000A0561E083E10E940A05E9EBF0E0808111
:1015D0008E7F808380818D7F808388E48093B800B4
:1015E00085E48093BC000895CF93DF9391E09093BE
:1015F000A302882361F0C091B800D091BA000E9484
:10160000C90A0E94D60AD093BA00C093B800DF91ED
:10161000CF9108958F929F92AF92BF92CF92DF9217
:10162000EF92FF920F931F93CF93DF93D091B40368
:10163000D13208F0D7C0182FC091B3030E9489059A
:101640006B017C0180918B0381116BC082E08093E0
:101650008B0310938A038FEF809389031092880382
:10166000D0938703A3E9B3E0E7E6F3E080E0D81383
:1016700091C01092660380916603CC0FC82BC09373
:10168000660380916503813009F088C0109265037C
:101690000E9489056B017C01809166038093BB00E9
:1016A00080918D0390918E03A0918F03B091900350
:1016B000892B8A2B8B2BA1F00E94890500918D0329
:1016C00010918E0320918F03309190036C197D0946
:1016D0008E099F09061717072807390708F442C023
:1016E0008091BC0083FDD8CF85EC8093BC000E9424
:1016F00089056B017C0180918B03823009F450C015
:10170000809189038F3F09F46FC0809189038032F3
:1017100009F46CC080918903803309F469C084E0C6
:1017200026C080918D0390918E03A0918F03B0917C
:101730009003892B8A2B8B2B09F484CF0E94890577
:1017400080908D0390908E03A0908F03B0909003B3
:101750006C197D098E099F0986169706A806B90699
:1017600008F070CF80918C030E94F40A85E01092FB
:1017700092031092B40310929103DF91CF911F91C5
:101780000F91FF90EF90DF90CF90BF90AF909F9020
:101790008F9008959D9191938F5F69CF85EEA5CF2E
:1017A00080918D0390918E03A0918F03B09190034F
:1017B000892B8A2B8B2B09F49ECF0E9489050091DF
:1017C0008D0310918E0320918F03309190036C193B
:1017D0007D098E099F09061717072807390708F0A2
:1017E0008ACFC0CF81E0C3CF80E0C1CF82E0BFCF3E
:1017F00083E0BDCF08950895E091A2028091A102F7
:10180000E81730F4F0E0EF57FD4F808190E0089545
:101810008FEF9FEF08959091A2028091A1022FEF88
:101820003FEF981748F4E92FF0E0EF57FD4F208184
:1018300030E09F5F9093A202C90108958091A102B8
:101840009091A202891B990B0895CF92DF92EF929B
:10185000FF920F931F93CF93DF937C01CB018A01FB
:1018600020919103222389F0EB016B01C40ED51E58
:10187000CC15DD0569F06991D701ED91FC910190DE
:10188000F081E02DC7010995F3CF642F0E94A20AD1
:10189000C801DF91CF911F910F91FF90EF90DF90E2
:1018A000CF900895CF93DF931F92CDB7DEB76983B2
:1018B000209191032223F9F02091B403203258F0B3
:1018C00021E030E0FC013383228390E080E00F9040
:1018D000DF91CF91089580919203E82FF0E0ED56CB
:1018E000FC4F998190838F5F809392038093B40320
:1018F00081E090E0ECCF61E0CE0101960E94A20A67
:10190000F7CF90E080E008950895693091F038F4C1
:1019100089589F4F683049F090E080E008956A3020
:1019200059F083589F4F6B30B9F7FC01808191814A
:10193000089587589F4FF9CF85589F4FF6CF2F9224
:101940003F924F925F926F927F928F929F92AF924F
:10195000BF92CF92DF92EF92FF920F931F93CF939C
:10196000DF9300D000D0CDB7DEB7DC0192962C918A
:1019700027FDFBC09C838B830E94E1054B015C012A
:101980001A82BA818B2F90E0EB81FC8122A1022E7A
:10199000000C330B281739070CF4E7C08E0F9F1F7C
:1019A000DC011296BC91B9836B2FCF010E94850C8C
:1019B0007C01892B09F4C2C0E981E83040F08091B4
:1019C0002D0390912E03E816F90609F0B7C0F981AE
:1019D000CF2ED12CF6013596EE0FFF1F2B813C81C7
:1019E000E20FF31F00811181D701ED91FC9100847A
:1019F000F185E02DC7010995181619060CF09EC057
:101A0000EB81FC81EC0DFD1DED5AFF4FA0813601ED
:101A1000660C771CA11149C080EF0E94C70280E6C6
:101A20000E94C702898180640E94C70201151105C6
:101A300059F0D701ED91FC910084F185E02DC701AB
:101A40000995081719074CF0D701ED91FC91008416
:101A5000F185E02DC70109958C01EB81FC816E0EAB
:101A60007F1EF301E15AFF4F80819181801B910B12
:101A700097FD74C091838083101611060CF071C01D
:101A8000D701ED91FC910284F385E02DC701099502
:101A9000D82E8F770E94C7028D2D881F8827881F18
:101AA0000E94C70201501109E7CFEB81FC81E60DCE
:101AB000F71DE15AFF4F2081318112161306F4F40D
:101AC000F601EE0FFF1FEE0FFF1F4B815C81E40F4D
:101AD000F51F23A034A045A056A0B501A4014219CA
:101AE0005309640975091A012B014A2F50E070E06F
:101AF00060E0241635064606570650F50115110517
:101B000009F58033910524F528173907BCF420E046
:101B1000CC0CDD1CCC0CDD1CEB81FC81EC0DFD1D27
:101B200083A294A2A5A2B6A2EB81FC81E60DF71DCB
:101B3000E15AFF4F9183808321116ECFBA81BF5F3D
:101B4000BA831FCF10161106FCF680179107E4F236
:101B5000281739070CF060CF21E0DACF118210820C
:101B60008BCF87EF0E94C702E9CF0F900F900F90A5
:101B70000F90DF91CF911F910F91FF90EF90DF9029
:101B8000CF90BF90AF909F908F907F906F905F901D
:101B90004F903F902F900895089581E04A3051056D
:101BA00009F080E008950895FC01E65BFF4F208175
:101BB000222331F01082855B9F4F2FEFFC012083A1
:101BC00008956251623030F486E00E94C70281E0DD
:101BD0000C94C70208959C018EEE860F8230B0F4FB
:101BE00046305105A9F0D901A65BBF4F8C918823DF
:101BF00071F0E62FF0E0EC54FB4F8081863031F439
:101C00001C92255B3F4F8FEFF901808380E00895A0
:101C100081E008950895CF93DF93FC012281338101
:101C200037FD0CC0EC012230310559F081E0233042
:101C3000310541F08FEF9FEF9B838A83DF91CF9136
:101C4000089580E00E942306F5CF90E080E06230A6
:101C500031F08FEF9FEF633011F481E090E062503C
:101C6000623140F4019631F080E10E94C70280E0C9
:101C70000C94C7020895CF93DF9330E020E06230E8
:101C800031F02FEF3FEF633011F421E030E07EEFD1
:101C9000760F7231A0F42F3F320789F040315105A1
:101CA00081F0FC01428153816417150641F4EC0177
:101CB000822F0E9423068FEF9FEF9B838A8380E011
:101CC00001C081E0DF91CF910895CF92DF92EF9232
:101CD000FF92CF93DF93EC010E94E1056B01770F38
:101CE000EE08FF0888859985AA85BB85C816D906A0
:101CF000EA06FB066CF04C815D816E817F81840F6A
:101D0000951FA61FB71F8C159D05AE05BF054CF48A
:101D10008A819B8197FF0E94ED05C886D986EA8655
:101D2000FB86DF91CF91FF90EF90DF90CF900895E9
:101D300080915E0490915F04A0916004B091610471
:101D40000196A11DB11D80935E0490935F04A09342
:101D50006004B09361040895CF93DF93EC010E9477
:101D6000E1056E837F838887998783E190E09B8775
:101D70008A87DF91CF9108956A37C1F44230B0F07D
:101D8000F9014181F0E84F9FA0011124F901208160
:101D9000240F352F311D2115310529F0FC01338722
:101DA000228781E0089521E030E0F8CF80E00895B7
:101DB00080E008950895CF92DF92EF92FF92F701AD
:101DC000D6012115310571F481E090E08D939C934B
:101DD000DA018D939C9311821082FF90EF90DF9037
:101DE000CF9008952150310980E022303105A8F7C5
:101DF00080E490E08D939C9381E090E0E9CF0F9395
:101E00001F93CF93DF938C01D62FC0E0D8019C960F
:101E10008C91C81798F4EC2FF0E03196EE0FFF1F6D
:101E2000E00FF11F80819181DC01ED91FC91008434
:101E3000F185E02D6D2F0995CF5FE8CFDF91CF9130
:101E40001F910F9108950F931F93CF938C01C0E0C2
:101E5000D8019C968C91C81790F4EC2FF0E0319645
:101E6000EE0FFF1FE00FF11F80819181DC01ED91EA
:101E7000FC910680F781E02D0995CF5FE9CFCF91E6
:101E80001F910F910895CF93C0E082EF8C0F62E015
:101E9000863028F08EEF8C0F823120F461E08C2F99
:101EA0000E94AF02CF5FC43181F785E295E0CF9108
:101EB0000C94230FDF92EF92FF920F931F93CF9317
:101EC000DF93EC01D62E8A01F12CE12C8CA5F816BB
:101ED000A8F4EF2DF0E03196EE0FFF1FEC0FFD1F81
:101EE00080819181DC01ED91FC910280F381E02DF4
:101EF000A8016D2D0995E82AF394E8CF8E2DDF9186
:101F0000CF911F910F91FF90EF90DF90089508956A
:101F10006250623130F481E00E94C70281E00C948B
:101F2000C7020895CF938EEF860F8231B0F441300F
:101F3000510599F4E62FF0E0EC54FB4F80818F3788
:101F400061F0C62F60E08C2F0E940A0561E08C2FA3
:101F50000E94380581E0CF91089580E0FCCF80E0B9
:101F600008951F93CF93DF939EEF980F923180F4E3
:101F7000C82FD0E0C859DB4FFE01E45BFF4F9081D2
:101F8000913031F4162F0E940A05C05ADF4F188392
:101F9000DF91CF911F910895AF92BF92CF92DF92C0
:101FA000EF92FF920F931F93CF93DF93833008F04C
:101FB0004BC091E0980F990F990F990FB92E953159
:101FC00010F024E1B22EC62FE82E9850092F10E011
:101FD000D0E0FF24F394802F0B1558F59EEF900F5F
:101FE0009231C8F4A80148595B4FFA01E45BFF4FF6
:101FF0002081223080F49F2D9C23AA24A394911148
:1020000001C0A12CBA01605A7F4F6B01213039F415
:10201000DF29F601A082FF0C0F5F1F4FDCCF992351
:10202000C1F3FB0190819130A1F362E00E94380579
:10203000F0CFE11014C0F8948BB1682F6C276C7F3F
:102040006D2368276BB97894DF91CF911F910F9121
:10205000FF90EF90DF90CF90BF90AF900895F1E0A8
:10206000EF121AC0CD23F89495B18D2F8F73809500
:1020700089239C2F9F73892B85B988B16D2F629519
:1020800066956695637060956823C295C695C695FA
:10209000C370C62BC8B9D7CF6D2F6F70F89498B1A5
:1020A000862F880F880F809589236C23660F660F13
:1020B000682B68B9C8CF0895FC011282108615827A
:1020C0001382118616821482128617820895625036
:1020D000623160F480E00E94C70281E00E94C70282
:1020E0008BE00E94C70281E00C94C7020895CF9351
:1020F0002EEF260F223188F5E62FE695E695E69538
:10210000E80FF92FF11D8085962F977021E030E0C0
:1021100001C0220F9A95EAF74115510519F04B308D
:102120005105B9F4C62F282B2087452B31F460E0E8
:102130008C2F0E94380581E00AC062E08C2F0E943B
:102140003805EC2FF0E0E853FB4F81E08083CF911E
:102150000895209528232087EECF80E0F8CF1F93A5
:10216000CF93DF936623E1F1EC018A81882369F044
:1021700019B11C7F888518238D81181731F0612FC4
:1021800070E080E00E9491041D838B81882399F088
:10219000298513B186B11F7330E4839FC0011124D8
:1021A000182B12238E81181731F0612F70E081E017
:1021B0000E9491041E838C81882391F086B190E067
:1021C00095958795959587958F701A8518238F819A
:1021D000181731F0612F70E082E00E9491041F8394
:1021E000DF91CF911F9108951F93CF93DF93833099
:1021F000B0F4C091F104D091F204C80FD11D6A83EC
:10220000672B69F0488581110EC029B12C7F2423EA
:10221000142F1223612F70E00E9491041D83DF911F
:10222000CF911F910895813049F423B166B12F7386
:1022300090E4699FB0011124262BE9CF96B1292F94
:1022400030E035952795359527952F70E0CF633091
:1022500039F08BEF860F823018F06950633030F41C
:1022600083E00E94C70288E00C94C7020895FF92A1
:102270000F931F93CF93DF93F9016F3609F077C067
:10228000423008F474C0F080C181D0E0423091F057
:10229000828120E8829FC0011124C82BD92B4330B2
:1022A00049F0838190E090E4899F902D8827112444
:1022B000C82BD92B0F2D10E0F801EC54FB4F808177
:1022C0008250823098F561E08F2D0E94380520976A
:1022D00029F460E08F2D0E940A0528C0CF3FD10568
:1022E00011F461E0F7CFF801E854FB4FE491E330DB
:1022F00021F140F4E130B1F0E230D1F0C038D10545
:1023000084F7E7CFE73019F1E83049F1E430B1F76D
:1023100080918000806280938000D0938B00C09376
:102320008A0004C084B5806884BDC7BD81E020C038
:1023300084B5806284BDC8BDF9CF8091800080687B
:1023400080938000D0938900C0938800EFCF809164
:10235000B00080688093B000C093B300E7CF809155
:10236000B00080628093B000C093B400DFCF80E003
:10237000DF91CF911F910F91FF9008950895EF92F3
:10238000FF920F931F93CF93662319F17C01C2EF45
:1023900010E000E0C630C0F4F801EC54FB4F80813F
:1023A000823091F4F701828193810C2E02C09595C1
:1023B00087950A94E2F780FF07C0802F0E9474057A
:1023C000BC018C2F0E9455040F5F1F4FCF5FC6309A
:1023D00009F7CF911F910F91FF90EF900895FC01A5
:1023E0001382128208956E50663030F482E00E94AB
:1023F000C7028AE00C94C7020895CF93DC016630CF
:10240000B0F412968D919C911397E1E0F0E0062EC6
:1024100002C0EE0FFF1F0A94E2F741110AC0E095D7
:10242000F095E823F9231396FC93EE931297CF913E
:102430000895E82BF92B1396FC93EE931297809155
:10244000DC048111F4CF822FC62F0E947405BC01D9
:102450008C2FCF910C945504CF93DF93FC016936F8
:10246000B9F480EF0E94C7028AE60E94C702C2EF59
:102470008C2FC63008F08FE70E94C702CF5FC630AE
:10248000B9F787EF0E94C70281E0DF91CF910895ED
:10249000643601F54230F0F0D9016C91A62FB0E01E
:1024A00050E040E0942FEA012E97AC17BD0731F0C1
:1024B0004F5F5F4F44315105A9F790E041E0D901EA
:1024C00011968C91813009F040E0292FCF010E94B4
:1024D000FD11DACF80E0D9CFCF93C62F62EF6C0F1A
:1024E000663088F42C2F4230510551F441E00E94AF
:1024F000FD1160E08C2F0E94380581E0CF91089596
:1025000040E00E94FD1180E0F9CFCF93DF93E0918E
:102510006404F0916504A82FB0E050E040E0242F5F
:10252000EA012E97AC17BD0731F04F5F5F4F443182
:102530005105A9F720E041E06130710509F040E064
:10254000682FCF01DF91CF910C94FD11089508956C
:1025500008950895089562506C3030F484E00E942C
:10256000C7028EE00C94C702089581E0089562507E
:10257000623130F48FE00E94C70280E40C94C702FD
:1025800008956A50643030F48CE00E94C70281E004
:102590000C94C702089580E008950895FC0101900D
:1025A0000020E9F73197AF01481B590BBC0185EBBF
:1025B00093E00C9463060F931F93CF93DF930E94D5
:1025C000D4028091680490916904DC01ED91FC9142
:1025D0000190F081E02D69E7099580916804909160
:1025E0006904DC01ED91FC910190F081E02D609196
:1025F0006C0409958091680490916904DC01ED9167
:10260000FC910190F081E02D60916D040995A091FD
:102610006A04B0916B04ED0109900020E9F721975D
:10262000CA1BDB0B10E000E0C017D10779F0E09186
:102630006A04F0916B04E00FF11F8081082E000CFA
:10264000990B0E943D030F5F1F4FEECFDF91CF919B
:102650001F910F910C94E002EF92FF920F931F9342
:10266000CF93DF938C010E945A2E7C018091DD0470
:10267000811107C0C8010E9450078DE592E00E94B9
:10268000CE120E94D4028091680490916904DC010A
:10269000ED91FC910190F081E02D61E70995D0E08A
:1026A000C0E0CE15DF054CF4F801EC0FFD1F84915E
:1026B00090E00E943D032196F4CFDF91CF911F91CE
:1026C0000F91FF90EF900C94E0028F929F92AF9247
:1026D000BF92EF92FF920F931F93CF93DF936D37CB
:1026E00009F05CC0423060F481E0DF91CF911F912E
:1026F0000F91FF90EF90BF90AF909F908F900895B3
:10270000E901F42E8C018881811118C02981F8011A
:10271000828193812817190621F097FD0FC02F376A
:1027200069F482309105E1F0039719F481E00E9489
:1027300023068FEF9FEFF80193838283F4E0FF1568
:1027400098F68881E98022E0E21651F193E0E916DB
:1027500039F1813049F684ED93E00E942C13C4CF07
:1027600080E0E5CFE3E0EE125DC028E93EE0309383
:1027700004012093030120916900237F880F991F92
:10278000880F991F822B80936900E99A4BC08C17A0
:102790009D0709F452C08EEA93E0DFCF80E0A5CF19
:1027A000813009F0A1CFFA808C81E0E88E9FC001D2
:1027B00011242B81822B4C01092E000CAA08BB0886
:1027C000892B59F00E94E105F801608771878287A3
:1027D000938784829582A682B782F8018281938151
:1027E000CE2DD0E08F3F980791F6EEEFEF0D90E001
:1027F00080E0E43038F4F0E0E55FFE4F8081082EA1
:10280000000C990B22E0E212ADCF28E93EE03093B4
:10281000020120930101909169009C7F892B809394
:102820006900E89AF801D383C28360E08E2D0E948C
:10283000380560E18E2D0E94AF02CE010E94ED05A9
:1028400053CF2F923F924F925F926F927F928F92CF
:102850009F92AF92BF92CF92DF92EF92FF920F932F
:102860001F93CF93DF9300D000D000D0CDB7DEB759
:102870005C01062F942E79016B3609F457C06D3632
:1028800071F010E0663609F00AC1EAE0E41708F4D6
:102890007CC082E893E00E942C1380E02EC0442389
:1028A000E1F3D9010C910431C0F780EF0E94C70217
:1028B0008EE60E94C702802F0E94C70210E00859CE
:1028C0001B4FF801E45BFF4F80810E94C702F801B3
:1028D000E05AFF4F1081812F8F770E94C702812F0E
:1028E00090E017FF06C0880F892F881F990B0E9460
:1028F000C70287EF0E94C70281E026960FB6F894C0
:10290000DEBF0FBECDBFDF91CF911F910F91FF9022
:10291000EF90DF90CF90BF90AF909F908F907F907F
:102920006F905F904F903F902F90089580EF0E949E
:10293000C7028CE60E94C70204EB14E0F12CF801F8
:1029400081918F018F37C9F0E12CD5019C968C9134
:10295000E81698F4EE2DF0E03196EE0FFF1FEA0D29
:10296000FB1D80819181DC01ED91FC910190F08152
:10297000E02D6F2D0995E394E8CF8FE70E94C70201
:10298000F394B4E1FB12DBCFB4CF11E0D9018C9109
:10299000811101C010E0F701818190E09E838D8359
:1029A00084E090E09C838B8383814480512C712C44
:1029B000612C47E0440C551C661C771C4A95D1F7E6
:1029C000482A42013580C70106960E94F9027A839F
:1029D0006983D501ED91FC910684F785E02D9E0178
:1029E0002F5F3F4F6901CE0103967C01032D9201B9
:1029F000AE014B5F5F4F612FC5010995811127C063
:102A0000212CD5019C968C91281608F5E22DF0E03A
:102A10003196EE0FFF1FEA0DFB1D80819181DC01D5
:102A2000ED91FC910684F785E02D9E012F5F3F4FCD
:102A30006901DE0113967D01032D9401AE014B5F08
:102A40005F4F612F0995811102C02394DACF80EF87
:102A50000E94C70286E60E94C702812F0E94C70219
:102A60008D810E94C7028B810E94C702842D8F77BF
:102A70000E94C702C201880F892F881F990B919568
:102A80008F770E94C702832D0E94C70269817A81D5
:102A9000072E000C880B990B0E9464032ACFF501C6
:102AA00084A5181708F0F9CEE12FF0E03196EE0F6B
:102AB000FF1FEA0DFB1D80819181DC01ED91FC91EE
:102AC0000480F581E02D9701492D602F0995811132
:102AD00014CF1F5FE4CFCF93DF93EB01A09162048B
:102AE000B0916304ED91FC9111970280F381E02D88
:102AF000AB01682FCD010995811109C0CF37D105F0
:102B000031F089E493E0DF91CF910C942C13DF91A5
:102B1000CF9108958F929F92AF92BF92CF92DF9202
:102B2000EF92FF92CF93613581F4F9018AE193E04E
:102B3000423048F0B1808081813009F0B9C146301F
:102B400030F48BED92E00E942C1380E018C0C90194
:102B500002960E94F9026B017C0180910001B81677
:102B6000C1F08F3F09F47BC00E94D40280E00E9434
:102B7000C70280E00E94C7020E94E00281E0CF917C
:102B8000FF90EF90DF90CF90BF90AF909F908F908D
:102B90000895E9E6F4E0C491C7FDE6CF61E08B2D2E
:102BA0000E943805CC2319F0C23009F02EC1EE2462
:102BB000FF2460E072E18AE790E0A70196010E949D
:102BC000902F49015A01DA01C9010197A109B10900
:102BD0008F3F9105A105B10509F00CF4FAC060E43E
:102BE00072E48FE090E0A70196010E94902F21509F
:102BF000310941095109C23009F0ACC082E02F3FD0
:102C000031054105510509F00CF498C160E970EDFA
:102C100083E090E0A70196010E94902F2150310996
:102C20004109510983E02F3F31054105510509F064
:102C30000CF484C168E478EE81E090E0A70196018D
:102C40000E94902F21503109410951092F3F310530
:102C50004105510511F00CF09BC084E06FC1B092AA
:102C60000001E9E6F4E0C491CF3F09F47DCFC13023
:102C700041F150F0C23009F446C0C7FD75CF61E0A4
:102C80008B2D0E94380590CF14BC15BC84B5826092
:102C900084BD85B5816085BD8B2D90E0FC01E0523F
:102CA000FB4FE491F0E0EE0FFF1FEA52FB4F25913E
:102CB0003491FC01EC50FB4FE491E0937802C0E0CA
:102CC0006DCF109280001092810080918100886009
:102CD00080938100809181008160809381008B2DA1
:102CE00090E0FC01E052FB4FE491F0E0EE0FFF1F9B
:102CF000EA52FB4F25913491FC01EC50FB4FE491DB
:102D0000E09377024BCF1092B0001092B100809107
:102D1000B00082608093B0008091B10081608093A8
:102D2000B1008B2D90E0FC01E052FB4FE491F0E00C
:102D3000EE0FFF1FEA52FB4F25913491309356035B
:102D400020935503FC01EC50FB4FE491E0935703B3
:102D5000C2E024CF2F3F31054105510509F00CF4A5
:102D600052C068E478EE81E090E0A70196010E94ED
:102D7000902F2150310941095109CC2309F4B3C0E6
:102D80002F3F31054105510509F00CF466CFB3C062
:102D900064E274EF80E090E0A70196010E94902F1A
:102DA000215031094109510985E02F3F3105410585
:102DB000510509F008F4C2C062E17AE780E090E0D2
:102DC000A70196010E94902F215031094109510914
:102DD000A0C09C0181E0C111B1C095B5987F892B3D
:102DE00085BD27BD8FEF9FEFDC0180937D0290931F
:102DF0007E02A0937F02B093800280916E00826079
:102E000080936E00B1CE82E0E6CFEE24FF2460E036
:102E100072E18AE790E0A70196010E94902F21506D
:102E200031094109510991E02115310581E0480737
:102E300051056CF068E478EE81E090E0A70196011E
:102E40000E94902F215031094109510993E0C1306E
:102E500009F07AC080918100887F892B809381005E
:102E600030938900209388008FEF9FEFDC018093DF
:102E7000790290937A02A0937B02B0937C028091B6
:102E80006F00826080936F006FCE2093B3008FEF4E
:102E90009FEFDC018093580390935903A0935A034A
:102EA000B0935B03809170008260809370005CCE71
:102EB0008B2D0E94370658CE84E02F3F3105410507
:102EC000510509F008F489CF8AE0B594A794979446
:102ED00087948A95D1F7A5019401215031094109C0
:102EE000510985E07ACF83E02F3F31054105510537
:102EF00009F00CF472CF62E17AE780E090E0A7017C
:102F000096010E94902F2150310941095109CC238B
:102F100099F286E02F3F31054105510579F070F0B7
:102F20009AE0B594A794979487949A95D1F7A501C0
:102F30009401215031094109510987E09091B10074
:102F4000987F892B8093B100C13009F489CFC230BA
:102F500009F49BCFC11108CE44CFFC0112AE9FB73C
:102F6000F89480917602882319F08150809376023C
:102F700080917602811105C08CB58F7B8CBD10923B
:102F800075029FBF87E792E00C942C13FC0122ADE1
:102F900021110C94AD170895DC0186EF860F843063
:102FA00090F44C30510589F0DA968C91DA978823A9
:102FB00059F0E62FF0E0EC54FB4F80818C3019F48F
:102FC000CD010E94AD1780E0089581E008954F92F1
:102FD0005F926F927F928F929F92AF92BF92CF92A9
:102FE000DF92EF920F931F93CF93DF936C01D62F55
:102FF0005A01122F4F3F540709F492C081E0809389
:1030000091036093B303109292031092B403642F60
:1030100082E594E00E94520C802F0E940A0BF60178
:10302000E45BFF4F808191818230910538F0880FF9
:10303000991F880F991F05970197F1F70E9489053D
:103040002B013C0180918B0381116CC0C12F113287
:1030500008F0C0E281E080938B0380938A039FEFA6
:1030600090938903109288039C0F90938703809319
:103070006603909166038D2F880F892B80936603DA
:1030800080916503813009F0A1C0109265030E9410
:1030900089052B013C01809166038093BB008091E0
:1030A0008D0390918E03A0918F03B0919003892B93
:1030B0008A2B8B2BA1F00E94890520918D033091E2
:1030C0008E0340918F03509190036419750986090E
:1030D0009709261737074807590708F444C0809115
:1030E000BC0083FDD8CF85EC8093BC000E9489058D
:1030F0002B013C0180918B03813009F469C08091E0
:1031000088038C1710F4C0918803A7E6B3E0E1E8C8
:10311000F2E080E08C1761F19D9191938F5FFACF7F
:10312000A12C8CCF80918D0390918E03A0918F0361
:10313000B0919003892B8A2B8B2B09F483CF0E94AB
:10314000890520918D0330918E0340918F0350911A
:1031500090036419750986099709261737074807E8
:10316000590708F06FCF80918C030E94F40AC0E0E9
:103170001092A202C093A102212F30E08C2F90E088
:10318000281739070CF046C08DEF93E00E942C13EE
:10319000F601A2A63601FBE26F0E711C912C812C68
:1031A000A12EB12C8A149B04DCF59091A102809190
:1031B000A2029817A9F182E594E00E940B0C9FEF00
:1031C000891A990AF30181933F01ECCF85EE8CCFE8
:1031D00080918D0390918E03A0918F03B091900305
:1031E000892B8A2B8B2B09F485CF0E94890520918E
:1031F0008D0330918E0340918F0350919003641999
:10320000750986099709261737074807590708F0EF
:1032100071CFA9CF821793070CF0BACF1C2FB8CF6C
:103220000E94D40287E70E94C7028D2F0E94C70226
:103230008E2D0E94C702E601AA96D12CC12C89913D
:1032400090E00E943D03FFEFCF1ADF0AAC14BD04EB
:10325000B4F7DF91CF911F910F91EF90DF90CF9056
:10326000BF90AF909F908F907F906F905F904F90A6
:103270000C94E002CF92DF92EF92FF920F931F9394
:10328000CF93DF936C012BE4C20ED11CF601208199
:1032900027FD28C0EC0110E085E0F82E812F90E09A
:1032A000F6012081022E000C330B28173907D4F0C9
:1032B000F89EF001F99EF00D1124EC0FFD1F019610
:1032C000F89ED001F99EB00D1124AC0FBD1F4381B3
:1032D0005481E12C06812C916281CE010E94E71776
:1032E0001F5FDCCFDF91CF911F910F91FF90EF9087
:1032F000DF90CF900895CF92DF92EF92FF920F93DD
:103300001F93CF93DF93E42EE901663729F06837E6
:1033100009F4FBC010E01CC0FC01E65BFF4F10810C
:103320001123B1F0398135FF05C08BE294E00E9492
:103330002C130EC0688141E036FB002700F90427FA
:10334000232F2871283009F43EC060F42223C9F0ED
:10335000812FDF91CF911F910F91FF90EF90DF9020
:10336000CF900895203109F44BC0283189F7EC0142
:10337000C55BDF4F388113160CF481C08FEF888353
:10338000E7CF409391036093B3031092920310929E
:10339000B40302E00E1578F4FE01E00FF11D618127
:1033A0006795662767958081680F82E594E00E94A3
:1033B000520C0E5FEFCF81E00E940A0B83E191E097
:1033C0000197F1F7C5CF7A812B8146E0E41211C055
:1033D000A0E82A9FA0011124470F511D2D81279598
:1033E000222727957C81270F3770E32E0E94E7174D
:1033F000AFCF279522272795270F4FEF5FEFF4CF09
:10340000FC01E55BFF4F408147301CF08AE194E00E
:103410008ECFAA813B81B6E0EB122AC050E8359FDF
:1034200090011124A20FB32FB11D3D813795332791
:1034300037952C81320F4F5F4083042E000C550BC3
:1034400025E0249FF001259FF00D1124E80FF91FBE
:103450006283B483A3834F5F5F4F249FB001259F96
:10346000700D1124860F971FDC013C93068370CFEB
:103470003795332737953A0FAFEFBFEFDCCF20E01A
:10348000E32E032E000CFF0875E0422F50E0E416F7
:10349000F50664F0749FF001759FF00D1124E80F9C
:1034A000F91F4281641719F02F5FEFCF20E045E04C
:1034B000622F70E0E616F7062CF1283008F5FB01C4
:1034C00031964E9FD0014F9FB00D1124A80FB91F08
:1034D00012965C911297469FF001479FF00D1124C0
:1034E0006F01C80ED91EF601528313966D917C911F
:1034F0001497748363835285558316965C91568323
:103500002F5FD6CF3150388323CF2981B0E82B9F4E
:10351000A00111242881240F352F311D21153105DB
:1035200029F0FC01E45BFF4F318320838C01065BB3
:103530001F4FF8018081811133C0D0E0C0E08C2F93
:103540008251823070F4FE01EC54FB4F80818F3742
:1035500039F166E08C2F0E94AF0266E08C2F0E944A
:1035600038052196C431D10551F781E0D8018C93FB
:103570000E94C90A1092A2021092A1021092920314
:103580001092B4030E94D60A8AEF9BE09093C50282
:103590008093C4028BEF9BE09093C9028093C80292
:1035A000F8011081D5CECF9343305105D1F463306B
:1035B00041F08BEF860F823020F087EF860F83304B
:1035C00080F4C62F61E08C2F0E94380561E08C2FBB
:1035D0000E94380560E08C2F0E940A0581E0CF919F
:1035E000089580E0FCCF0C9481311F93CF93DF933B
:1035F000EC0118E0612FCE010E94850C009711F0BC
:103600000E9481311F5F1C30A9F78FEF8AA3FE0152
:103610003A96CE018396DE01AD5ABF4FAE014E5DA4
:103620005F4F11921192EC0119921992199219920D
:10363000CE011D929F012D5A3F4FE9011982188238
:10364000E417F50771F7DF91CF911F9108950C945E
:1036500081310C9481310C9481310C9481310C9422
:1036600081310C9481310C9481310C9481310C9412
:1036700081310C9481310C9481310C9481310C9402
:103680008131CF93DF93C62FD0E0CC0FDD1FC80F61
:10369000D91FBA91AA911097A1F0EC912E2F30E08A
:1036A000F901EE0FFF1FE20FF31FEF5CFC4F90815B
:1036B00096FF02C09F7B9083CD010E9481311982C9
:1036C0001882DF91CF9108950F931F93CF938C01B0
:1036D000C0E08EEF8C0F8C3020F46C2FC8010E945C
:1036E000411BCF5FC431A9F7CF911F910F9108956E
:1036F000CF93DF93EC018E819F81009721F00E9490
:1037000081311F821E82DF91CF910895CF93DF9385
:10371000FC012281222341F0EC01858196810E94E7
:1037200081311E821D821A82DF91CF910895CF933D
:10373000DF93EC016250623170F481E04F3051054B
:1037400059F08A81882341F08D819E810E948131C8
:103750001E821D821A8280E0DF91CF9108954F92E0
:103760005F926F927F928F929F92AF92BF92CF9211
:10377000DF92EF92FF920F931F93CF93DF93CDB71A
:10378000DEB7A1970FB6F894DEBF0FBECDBF7C01A8
:103790005A016B010E945A2E4C018091DD04811167
:1037A00026C0C7010E94500719A29501A6018E01EB
:1037B0000F5D1F4F8AE0482E512C612C712CCA01DD
:1037C000B901A30192010E94E62F605DD8016E93BA
:1037D0008D01211531054105510589F7109719F023
:1037E000CD010E94CE128DE592E00E94CE120E9481
:1037F000D4028091680490916904DC01ED91FC9100
:103800000190F081E02D61E7099510E000E00815D6
:10381000190554F4F701E00FF11F849190E00E9424
:103820003D030F5F1F4FF3CF20E1FE0131964F01A3
:10383000AF01B501C6010E94632EF4010190002082
:10384000E9F731977F01E818F908B7016F5F7F4FFB
:1038500090E080E00E940A328C010097C9F0DC0100
:103860001C92B4010E94D732D12CC12CCE14DF049B
:1038700091F080E00115110521F0F801EC0DFD1D1E
:10388000808190E00E943D03BFEFCB1ADB0AEECFB0
:10389000F12CE12CE9CF0E94E00201151105C9F0DD
:1038A000C801A1960FB6F894DEBF0FBECDBFDF9161
:1038B000CF911F910F91FF90EF90DF90CF90BF902D
:1038C000AF909F908F907F906F905F904F900C94EF
:1038D0008131A1960FB6F894DEBF0FBECDBFDF9148
:1038E000CF911F910F91FF90EF90DF90CF90BF90FD
:1038F000AF909F908F907F906F905F904F900895C2
:103900002F923F924F925F926F927F928F929F92EF
:10391000AF92BF92CF92DF92EF92FF920F931F93DD
:10392000CF93DF93CDB7DEB7C754D1090FB6F89464
:10393000DEBF0FBECDBF4C016A01DC01DA968C916F
:1039400081111EC086E692E00E942C13C95BDF4FF6
:103950000FB6F894DEBF0FBECDBFDF91CF911F91A0
:103960000F91FF90EF90DF90CF90BF90AF909F901E
:103970008F907F906F905F904F903F902F90089521
:103980002223D9F06430D8F0F6014081F401B12C43
:10399000A12C8281481709F427C13FEFA31AB30A6B
:1039A000379688E0A816B104A1F750E070E060E017
:1039B0008CE192E00E94AF1BC9CF663028F787E404
:1039C00092E0C2CF87E08A9DF0018B9DF00D11241B
:1039D000E80DF91D9581911116C0F6019E012F5F2A
:1039E0003F4FD90194E07D01E21AF30A329696170F
:1039F00008F008C183818795882787954281840FC5
:103A00008D939E5FF0CF6450770B869F7001879FE8
:103A1000F00C112463E0F594E7946A95E1F7B1E4C2
:103A2000EB16F1041CF081EF91E08ECF1601E4E07B
:103A30002E0E311C9E012F5F3F4F2901F90130E00E
:103A400020E057E0652E712CCF01841995098E1561
:103A50009F050CF0D7C0C901B3010E94CB30D10142
:103A6000A60FB71F11966C911197A301481B590B14
:103A700001C0660F4A95EAF74C9150E002C0559597
:103A800047958A95E2F7642B6193285F3F4FDCCF1F
:103A90008093740211C1F7013197E80FF91F0DB43B
:103AA00007FEFDCF8EB5808380917502882359F083
:103AB0009FB7F8942091750280917402213009F02B
:103AC0005BC08DBB9FBFF6018281882361F087E0D8
:103AD0008A9DF0018B9DF00D1124E80DF91D61E028
:103AE00084810E940A050130110509F02FCF0E9440
:103AF000D40288E60E94C70285E00E94C702D60170
:103B00008C910E94C702F60181810E94C7028E2D0E
:103B10000E94C70227E02A9DC0012B9D900D112411
:103B2000880E991ED40115968C91FE0131965F0185
:103B30008F01882309F44BC04F0110E000E0512CA5
:103B400048E0642E712CC4018A199B098E159F05CB
:103B5000B4F5D4018D914D01C82ED12C011511055C
:103B600069F48F770E94C702CC0CCD2CCC1CDD08E9
:103B70005C2C01E010E0E7CF8FBFA5CFC601002E7F
:103B800001C0880F0A94EAF78F7785290E94C7023F
:103B90000630110541F4C601959587950E94C7022C
:103BA00010E000E0D0CF0F5F1F4FC301801B910BCF
:103BB00002C0D594C7948A95E2F75C2CC4CF012B40
:103BC00019F0852D0E94C7020E94E002BFCEC801F5
:103BD0008A199B098E159F05BCF7F80181918F0109
:103BE00090E00E943D03F3CF222309F4EBCED601EF
:103BF0001396EC90F12CA70170E060E0CE010196E5
:103C00000E94D0320230110569F580EF22968FAF05
:103C1000229788E623968FAF239785E024968FAF6F
:103C20002497D6018C9125968FAF259711968C916C
:103C300026968FAF269727961FAE279787EF289651
:103C40008FAF28978091680490916904DC01ED9111
:103C5000FC910280F381E02D47E050E0BE016F5BF4
:103C60007F4F099587E08A9DF0018B9DF00D11240F
:103C7000E80DF91D84818F3F19F060E00E940A056C
:103C800087E08A9DF0018B9DF00D11243696E80D9A
:103C9000F91D2081918180917502882369F08FB789
:103CA000F89430917502313009F0F2CE3DB3309383
:103CB00074023DB33DBB8FBF2CBD9DBDE114F1042B
:103CC00009F4F2CE89818EBDFE0131969701CF01B4
:103CD0002150310909F4DFCE51810DB407FEFDCF2B
:103CE0004EB55EBD4193F4CFCF92DF92EF92FF923B
:103CF0000F931F93CF93DF93CDB7DEB7C054D10995
:103D00000FB6F894DEBF0FBECDBF2F96EEACFFAC62
:103D10002F97C7010E945A2E8C0180970CF056C035
:103D20000E94D4028091680490916904DC01ED91B5
:103D3000FC910190F081E02D61E70995DE019196FB
:103D400090E080E0AD01801791073CF4F701E80FA7
:103D5000F91FE491ED930196F6CFFA01E00FF11F00
:103D600010828E010F5F1F4F80E2F80111928A9539
:103D7000E9F79E01215B3F4F60E270E0C8010E94BD
:103D8000DE328091DD04811107C0C8010E94CE128D
:103D90008DE592E00E94CE12F80101900020E9F733
:103DA00031977F01E01AF10A6801C601801B910B6F
:103DB0008E159F054CF4D6018D916D01082E000CD7
:103DC000990B0E943D03F1CF0E94E002C05CDF4FDF
:103DD0000FB6F894DEBF0FBECDBFDF91CF911F911C
:103DE0000F91FF90EF90DF90CF900895CF93DF93E6
:103DF000C82FD62F9A018091620490916304DC0150
:103E0000ED91FC910480F581E02D462F6C2F0995F2
:103E1000811116C01F92DF931F92CF938AE593E022
:103E20009F938F9388E694E09F938F930E94741ED4
:103E30008DB79EB708960FB6F8949EBF0FBE8DBF84
:103E4000DF91CF9108956F927F928F929F92AF9260
:103E5000BF92CF92DF92EF92FF920F931F93CF9377
:103E6000DF93683649F48901F42EEC01411106C054
:103E700088E690E00E942C1380E026C0A9014F5FE5
:103E80005F4FFA94F9018081883008F078C1E82FFB
:103E9000F0E0E35BF04E0C94DF30551FD21FBC20E6
:103EA000B520AD20BF20A920B9208AAD81110CC05A
:103EB000F1E0FF1204C0F90181818823A1F085EBB4
:103EC00090E00E942C1381E0DF91CF911F910F9120
:103ED000FF90EF90DF90CF90BF90AF909F908F902A
:103EE0007F906F9008958091C0048F3781F16CE0CE
:103EF0008CE00E94AF0260E08CE00E943805809167
:103F0000BF048F3721F16CE08BE00E94AF0261E0CB
:103F10008BE00E9438058091C1048F37C1F06CE0BE
:103F20008DE00E94AF0261E08DE00E943805FAAE9C
:103F3000CFB7F89480917602882361F08091760261
:103F40008F5F80937602CFBF89EA90E0BACF81E994
:103F500090E0B7CFEAEEF4E08491EEEFF4E09491D4
:103F6000E82FF0E0EE0FFF1FE255FB4FA591B49153
:103F7000EC91E92321F461E08AE00E940A0561E006
:103F80008AE00E9438058CB580618CBD8CB5806458
:103F90008CBD61E08DE00E94380561E08BE00E94FD
:103FA0003805CCCFF9E08EEA91E0FF1508F089CF13
:103FB000F9017180FE01DE01EE24EA94FE2C90E00E
:103FC00080E012962C911297271101C07C01019676
:103FD000179688309105A9F78FEFE816F80691F447
:103FE00090E080E02085211101C07C010196379688
:103FF00088309105B9F79FEFE916F90619F48CE7B7
:1040000091E05FCFF8018085877F19F08EE491E021
:1040100058CF872D837049F0472D50E070E060E065
:1040200080E291E00E94AF1B4ECF87E08E9D600141
:104030008F9DD00C1124CC0EDD1EF6017282F8018A
:104040008281F82FF1706F2E83FB882780F9F601AB
:104050008583C80103960E94F9024B015C01F801B7
:104060008185F6018383F8018285F601848381E0EE
:10407000808781149104A104B10439F420E4822ED4
:104080002BE4922E2CE4A22EB12C40E052E16AE700
:1040900070E080E084169506A606B70640F4769593
:1040A0006795579547958F5F8630A1F787E091E038
:1040B000982720E5611001C020E737E03E9D800190
:1040C0003F9D100D1124F8013696EC0FFD1F9695BB
:1040D000922B90838095817081830C0F1D1FF801B6
:1040E000838180FD2CC08FEF8483BF92AF929F921B
:1040F0008F9227E02E9DC0012F9D900D1124C80F97
:10410000D91F8C81282F082E000C330B3F938F93DF
:10411000FF92EF921F927F9289ED90E09F938F9391
:1041200088E694E09F938F930E94741E8DB79EB78C
:104130000E960FB6F8949EBF0FBE8DBFC4CE61E041
:1041400084810E94AF0261E0F80184810E943805F9
:10415000CCCFCE010E94AD17B6CE01E010E021E039
:104160006F2DCE010E94801CAECE10E000E020E05A
:10417000F7CF02E010E0FBCF01E010E0F8CF482FCE
:1041800050E070E060E08BED91E04CCF85ED8093E6
:10419000BC0080918D0390918E03A0918F03B0910C
:1041A00090030796A11DB11D23E0B695A79597959D
:1041B00087952A95D1F72091BC0024FD03C0109269
:1041C0008B03089540918D0350918E0360918F036E
:1041D00070919003452B462B472B69F30097A1055F
:1041E000B10541F02AE22A95F1F700C00197A10933
:1041F000B109E1CF80918C030C94F40A9F92AF92A5
:10420000BF92CF92DF92EF92FF920F931F93CF93C3
:10421000DF93603541F4F901EC01433030F48DEA6D
:1042200092E00E942C1380E063C09280E180F080D5
:104230008E819F81AF2CB12CCE2CD12C009751F0C8
:104240002A813B812A153B0529F42C813D812C15BF
:104250003D0539F10E9481318BE090E00E94E5300C
:104260008C01FC01F082E18281E0EF1080E0F80136
:10427000828361E08F2D0E94380560E0F801818122
:104280000E94380580E29EE4A0E0B0E0F801878358
:104290009087A187B2871F830E83BB82AA82DD82AB
:1042A000CC82911031C08E819F810E940A0868E300
:1042B00070E00E94B73084E6869FE001879FD00DB2
:1042C00011240E94D40280E50E94C7028F2D0E9413
:1042D000C7028E2D0E94C702892D0E94C702BE010F
:1042E000DD0F880B990B0E9464030E94E00281E0BD
:1042F000DF91CF911F910F91FF90EF90DF90CF90C2
:10430000BF90AF909F900895F1E09F128CCF8E8167
:104310009F810E940A086EE870E0CBCF7F928F9257
:104320009F92AF92BF92CF92DF92EF92FF920F9344
:104330001F93CF93DF93EC01D901603609F0BBC026
:104340008C91182F1F701C3008F0B5C0807F80330F
:1043500009F493C15901042F813338F48031A1F15C
:10436000803209F46CC181E0A7C0803609F4E3C152
:10437000803709F4EFC18035B1F7612FCE010E947B
:10438000850CEC01009779F3183008F0CEC1E88174
:10439000F9810680F781E02D0995EA89FB89808102
:1043A0008F7E8083EA89FB898081877F8083EA8989
:1043B000FB8980818F778083EA89FB8980818F7D6B
:1043C00080838A8D898FCFCFD9011296CC90129796
:1043D000D12CF12CE12CE7E0CC0CDD1CEE1CFF1CF9
:1043E000EA95D1F713968C9190E0B0E0A0E0FEE062
:1043F000880F991FAA1FBB1FFA95D1F78C299D29F9
:10440000AE29BF29F90121816C017D01C22A812FCA
:1044100090E0FC01EE0FFF1FEC0FFD1FE15AFF4F74
:1044200011821082FC01EE0FFF1FEE0FFF1FEC0F39
:10443000FD1F13A214A215A216A28C0F9D1FFC0132
:10444000ED5AFF4F1082183060F4612FCE010E94A8
:10445000850C009709F487CFB701A6010E94C50318
:1044600082CF453020F1D50114960C911497159602
:104470007C901A3009F4C6C01B3009F4C8C019304A
:1044800049F55E01B9E7AB0EB11CF5018081918160
:10449000892BA9F58FE190E00E94E5304C01472D72
:1044A000602F0E947129D5018D929C9228C08BE4C7
:1044B00094E00E942C1380E0DF91CF911F910F9127
:1044C000FF90EF90DF90CF90BF90AF909F908F9034
:1044D0007F9008954E01B7E78B0E911CF401808107
:1044E0009181892B61F48FE190E00E94E5305C01BD
:1044F000472D602F0E947129D401AD92BC92612F8B
:10450000CE010E94850CEC01892B09F42CCF6AE0C6
:10451000802F0E94AF026AE0872D0E94AF021B8E9F
:104520001A8E198E188E1F8A1E8A60E079E08DE33C
:1045300090E0A70196010E94902FF901C90103970D
:104540002430310510F481E090E09D8F8C8F6C85D4
:10455000663108F053C0C90196958795843191055D
:1045600008F45AC043979F8B8E8BC90105973697E5
:1045700010F481E090E0998F888FC901880F991F0E
:10458000280F391F36952795369527952D303105FB
:1045900008F445C02C5031093B8F2A8F9091680058
:1045A00084E0683048F021E06E3008F420E081E0DB
:1045B00001C0880F2A95EAF7892B809368009C85B3
:1045C0002DE630E0983050F02BE630E09E3030F0B1
:1045D0002CE630E0963110F030E020E03C8B2B8B65
:1045E000292F30E09830F0F481E001C0880F9A95CF
:1045F000EAF78D8B8C8D9D8D0197F1F7CE010E948E
:10460000790AB1CE5E01BBE7AB0EB11C3ECF5E01B5
:10461000BDE7AB0EB11C39CF81E090E0A4CF21E023
:1046200030E0BACF9E3040F42850310981E001C01B
:10463000880F2A95EAF7DDCF2E503109F7CF612F89
:10464000CE010E94850C7C01892B09F48CCEE501FA
:1046500011E0101708F087CE6A8167956627679585
:104660008981680FD701ED91FC910190F081E02DD7
:10467000C70109951E5F2296ECCF11968C91119778
:10468000811126C03AA137300CF06DCE812F90E019
:104690000596880F991FFE01E80FF91F4330A8F017
:1046A00013968C91139720E8829FC00111241296D3
:1046B0002C91822B9183808381E0830F8AA3C80F82
:1046C000D11D87FDDA951A834ECE11821082F4CF68
:1046D000813009F048CE9AA119161CF08FEF8AA3F9
:1046E00042CE80E0492F092E000C550B282F30E0D8
:1046F0004217530774F480E0E82FF0E04E175F078D
:104700008CF0883020F4EC0FFD1F238122838F5F13
:10471000F3CF2C0F3D1FD90112962C91121761F384
:104720008F5FE4CF91509AA31ECE0E94630ACE0100
:104730000E94813118CE612FCE010E94850C009716
:1047400009F411CEDC01ED91FC910680F781E02D9A
:10475000099509CE183008F406CE612FCE010E94CB
:10476000850C009709F04BCFFECDCF92DF92EF92F0
:10477000FF920F931F93CF93DF937A016901C62FA6
:10478000D0E08E01000F111F080F191FD8019E9154
:104790008E918D010097E9F483E090E00E94E5306E
:1047A00020912F032C30D0F531E0320F30932F03BE
:1047B000FC01208330E0F901EE0FFF1FE20FF31F31
:1047C000EF5CFC4F28EB3BE032832183F8019183BF
:1047D0008083DC01EC912E2F30E0F901EE0FFF1FFA
:1047E000E20FF31FEF5CFC4F208126FF02C02F7BFE
:1047F0002083F7FE06C020E639E040E252E0D7FC15
:1048000002C09601A701BE01DF91CF911F910F91C8
:10481000FF90EF90DF90CF900C948B072FEFDC018F
:104820002C93D4CFCF92DF92EF92FF920F931F93EE
:10483000CF936037B1F54530A0F1F901C0814EEF5B
:104840004C0F4C3070F5EC2FF0E0EC54FB4F4081F6
:104850004F3739F1F9018C01E28020E8E29EC00176
:104860001124E180E80EF92EF11CC48020E8C29EDC
:10487000C0011124C380C80ED92ED11C64E08C2F36
:104880000E94AF029601A7016C2FC8010E94B523B8
:1048900081E0CF911F910F91FF90EF90DF90CF902B
:1048A000089580E0F6CF2EEF260F2C3068F44430C8
:1048B000510541F42FEF3FEF4FEF5FEF0E94B5231B
:1048C00081E008950E94411B80E008958F929F929D
:1048D000AF92BF92CF92DF92EF92FF920F931F930E
:1048E000CF93DF93643741F4F901EC01423030F4A7
:1048F00081E892E00E942C1380E00CC0E08083E00D
:10490000E81215C08D819E810E9481311E821D8218
:104910001A8281E0DF91CF911F910F91FF90EF906C
:10492000DF90CF90BF90AF909F908F900895A1E0BF
:10493000EA1631F0B2E0EB1205C056E1E52E02C0F6
:104940006BE0E62EF1800F2D10E08A8181114FC0BF
:104950001C830B8381E08A8383E190E00E94E53031
:104960006C01FC01F582E682F801EC50FB4FE4910A
:10497000DC011796EC931797F801E052FB4FE49196
:104980001896EC9380E89EE3A0E0B0E0F6018587FE
:104990009687A787B08BDE82CD8262E08F2D0E9442
:1049A00038050E94E105605D774081099109D601D3
:1049B00019966D937D938D939C931C9787E35296E4
:1049C0008C930D811E81C8010E94B308882351F089
:1049D000F80186818B3030F08D3098F0855182302F
:1049E00008F446C060E070E080EC9FE725C08B8152
:1049F0009C818017910729F38D819E810E948131CE
:104A0000ABCF618170E090E080E00E94972E2DECAA
:104A10003CEC4CEC5DE30E94D22E4B015C01F801B2
:104A2000608170E090E080E00E94972E9B01AC01D5
:104A3000C501B4010E9409300E9475302AE0269F0A
:104A40008001279F100D11240D80DE81C02DCE0125
:104A50000E94B308882339F08E818C3009F484C019
:104A6000B8F48B3061F160E070E080EC9FE74DC0FE
:104A70006081718176276727762790E080E00E9429
:104A8000952E2DEC3CEC4CEC5DE30E94D22ED4CF65
:104A90008551823040F7EA806E2D70E0762F6627D0
:104AA00066277F778B81682B90E080E00E94952EAF
:104AB0002DEC3CEC4CEC5DE30E94D22E6FC06A8181
:104AC00070E090E080E00E94952E4B015C01CB816C
:104AD000C7FF0AC0AC019B0160E070E080E89FEB7B
:104AE0000E9408304B015C01CF706C2F70E090E0A9
:104AF00080E00E94972E2DEC3CEC4CEC5DE30E9494
:104B0000D22EA50194010E94093020E030E040E25D
:104B100051E40E94D22E0E9475304B010E94D402B3
:104B200084E70E94C70280E00E94C7028F2D0E9486
:104B3000C702882D8F770E94C702C401880F892F72
:104B4000881F990B8F770E94C702802F8F770E9452
:104B5000C702C801880F892F881F990B8F770E9481
:104B6000C7020E94E002D5CEEA806E2D70E090E090
:104B700080E00E94952E4B015C016B816F7070E0AC
:104B800090E080E00E94972E2DEC3CEC4CEC5DE335
:104B90000E94D22EA50194010E940930E7FEB5CFF4
:104BA0009058B3CF1F920F920FB60F9211242F93EC
:104BB0003F938F939F93AF93BF9380915D039091A9
:104BC0005E03A0915F03B091600330915C0323E02A
:104BD000230F2D3758F50196A11DB11D20935C03BD
:104BE00080935D0390935E03A0935F03B093600393
:104BF0008091610390916203A0916303B09164037B
:104C00000196A11DB11D8093610390936203A0934F
:104C10006303B0936403BF91AF919F918F913F91D4
:104C20002F910F900FBE0F901F90189526E8230F1D
:104C30000296A11DB11DD2CF1F920F920FB60F92F7
:104C400011242F933F934F935F936F937F938F9391
:104C50009F93AF93BF93EF93FF93E0910301F09184
:104C600004010995FF91EF91BF91AF919F918F91B1
:104C70007F916F915F914F913F912F910F900FBE58
:104C80000F901F9018951F920F920FB60F9211243C
:104C90002F933F934F935F936F937F938F939F9344
:104CA000AF93BF93EF93FF93E0910101F091020165
:104CB0000995FF91EF91BF91AF919F918F917F9156
:104CC0006F915F914F913F912F910F900FBE0F9079
:104CD0001F9018951F920F920FB60F9211242F93C9
:104CE0003F934F935F936F937F938F939F93AF9374
:104CF000BF93EF93FF938091580390915903A09134
:104D00005A03B0915B03892B8A2B8B2BD1F19091A5
:104D10005703E0915503F0915603808189278083E2
:104D20008091580390915903A0915A03B0915B036D
:104D3000181619061A061B069CF4809158039091C8
:104D40005903A0915A03B0915B030197A109B109DE
:104D50008093580390935903A0935A03B0935B0335
:104D6000FF91EF91BF91AF919F918F917F916F9143
:104D70005F914F913F912F910F900FBE0F901F9019
:104D80001895809100010E943706EACF1F920F927A
:104D90000FB60F9211242F933F934F935F936F930E
:104DA0007F938F939F93AF93BF93EF93FF9385EB85
:104DB00093E00E94E106FF91EF91BF91AF919F9127
:104DC0008F917F916F915F914F913F912F910F90B4
:104DD0000FBE0F901F9018951F920F920FB60F9253
:104DE00011242F938F939F93EF93FF93E091C5032B
:104DF000F091C6038081E091CB03F091CC0382FD5A
:104E00001BC090818091CE038F5F8F732091CF0361
:104E1000821741F0E091CE03F0E0EB54FC4F958F08
:104E20008093CE03FF91EF919F918F912F910F90DF
:104E30000FBE0F901F9018958081F4CF1F920F9294
:104E40000FB60F9211242F933F934F935F936F935D
:104E50007F938F939F93AF93BF93CF93DF93EF9302
:104E6000FF9380913003C0912F03D0E087FF24C0CF
:104E70001092850010928400809130038F5F8093A0
:104E8000300380913003082E000C990B8C179D077E
:104E900024F4809130038C30C4F18091840090918F
:104EA0008500049680349C4908F47AC0809184007F
:104EB00090918500049676C080913003082E000CF6
:104EC000990B8C179D07C4F6E09130038E2FEE0FDF
:104ED000990BFC01EE0FFF1FE80FF91FEF5CFC4F71
:104EE000808186FFC9CFE09130038E2FEE0F990BA2
:104EF000FC01EE0FFF1FE80FF91FEF5CFC4F8081F4
:104F000060E08F730E940A05B7CF20918400309132
:104F10008500E09130038E2FEE0F990BFC01EE0F10
:104F2000FF1FE80FF91FEF5CFC4F81819281820F18
:104F3000931F9093890080938800E09130038E2F17
:104F4000EE0F990BFC01EE0FFF1FE80FF91FEF5C4E
:104F5000FC4F808186FF11C0E09130038E2FEE0F51
:104F6000990BFC01EE0FFF1FE80FF91FEF5CFC4FE0
:104F7000808161E08F730E940A05FF91EF91DF91BC
:104F8000CF91BF91AF919F918F917F916F915F91E1
:104F90004F913F912F910F900FBE0F901F9018953A
:104FA00080E49CE990938900809388008FEF809340
:104FB0003003E3CF1F920F920FB60F9211242F935D
:104FC0003F934F935F936F937F938F939F93AF9391
:104FD000BF93EF93FF93E0912D03F0912E03309751
:104FE00049F0A685B7858585968D91FF14C09C9163
:104FF0008923A1F4FF91EF91BF91AF919F918F9180
:105000007F916F915F914F913F912F910F900FBEC4
:105010000F901F9018959C91892361F7A389B489FB
:105020009C918589809589238C938689978901979E
:10503000F1F7608D718DA685B785558538E020E044
:10504000CB010197F1F7822F90E095958795282F56
:105050004C91452309F02068315091F7868D81FDF0
:10506000209580912B0390E001968F7399273091C2
:105070002C03381799F0A0912B03B0E0A551BD4F38
:105080002C9380932B03828D938D0197F1F7A38945
:10509000B4898C919589892B8C93ACCF868D816056
:1050A000868FF1CF1F920F920FB60F9211242F937C
:1050B0003F934F935F936F937F938F939F93AF93A0
:1050C000BF93EF93FF938091B900887F803609F4F6
:1050D0004AC0F0F5883209F4A7C018F5803109F408
:1050E0009BC0B8F4882309F4F9C0883009F494C04F
:1050F000FF91EF91BF91AF919F918F917F916F91B0
:105100005F914F913F912F910F900FBE0F901F9085
:105110001895883109F488C0803251F7809389034B
:1051200014C0803409F49DC040F48033B9F388334F
:10513000F9F68093890385ECB0C0803509F485C009
:10514000883509F496C0883499F60E94C620D0CFDD
:10515000883909F48CC038F5883729F050F488363E
:1051600011F0803729F683E080938B031092EA02D6
:1051700057C0883809F47BC0803919F0803809F0AD
:10518000B7CF8091EA02803208F071C0E091EA0264
:1051900081E08E0F8093EA028091BB00F0E0E6533D
:1051A000FD4F80833DC0803B39F0E0F4803A09F444
:1051B00079C0883A09F09CCF84E080938B031092E9
:1051C000C7021092C602E091C402F091C50209958F
:1051D0008091C60281110FC081E08093C6021092B7
:1051E000A40209C0803C09F4A6CF883C09F4A3CFEF
:1051F000883B09F07DCFE091C70281E08E0F80935C
:10520000C702F0E0EC55FD4F80818093BB00909188
:10521000C7028091C60229C0809166038093BB00BB
:1052200085EC8093BC0064CF9091880380918703C4
:10523000981758F5E091880381E08E0F80938803DA
:10524000F0E0E959FC4F8081E9CFE091880381E0EB
:105250008E0F809388038091BB00F0E0E959FC4FEA
:10526000808390918803809187039817C8F285E81E
:10527000D8CFE091880381E08E0F809388038091DE
:10528000BB00F0E0E959FC4F808380918A038111D3
:105290005CCF81E08093650384EA8093BC00109228
:1052A0008B0326CF85EC8093BC0010928B038091FA
:1052B000EA02803230F4E091EA02F0E0E653FD4F7A
:1052C00010826091EA0270E0E091C802F091C90298
:1052D0008AEC92E009951092EA020ACF10928903B3
:1052E00034CF0F931F93CF93DF93EC01162F042F2E
:1052F0001B821A8288EE93E0A0E0B0E08C839D834D
:10530000AE83BF8383E191E0998388831F8A1E8ADD
:10531000198E188E1B8E1A8E1D8E1C8E6E8D6E7FB2
:105320006D7F6E8F6695617081E06827842F0E9483
:105330000A0561E0802F0E943805802F90E0FC0173
:10534000EC50FB4FE491E88BFC01E052FB4FE49101
:10535000F0E0EE0FFF1FEA52FB4F859194919A8B7C
:10536000898B60E0812F0E9438058E8D81FD04C0FD
:1053700061E0812F0E940A051C87812F90E0FC01CB
:10538000EC50FB4FE491ED87FC01E052FB4FE491C0
:10539000F0E0EE0FFF1FE453FB4F859194919F8740
:1053A0008E87DF91CF911F910F9108951092B803CE
:1053B0001092B70388EE93E0A0E0B0E08093B903C9
:1053C0009093BA03A093BB03B093BC0325E231E0F2
:1053D0003093B6032093B50325EC30E03093C2033D
:1053E0002093C10324EC30E03093C4032093C30323
:1053F00020EC30E03093C6032093C50321EC30E06D
:105400003093C8032093C70322EC30E03093CA03E3
:105410002093C90326EC30E03093CC032093CB03D8
:105420001092CE031092CF031092D0031092D103AA
:10543000109255041092540480935604909357048C
:10544000A0935804B093590487E391E090935304D8
:105450008093520410926D0410926C048FE592E0D8
:1054600090936B0480936A041092F0040E943504B8
:105470008DEF91E0909374068093730610927B06F3
:10548000109278061092750610927C06109279069A
:105490001092760610927D0610927A061092770688
:1054A00083E796E09093F2048093F10484EF90E117
:1054B0009093E3048093E20489EE91E09093720666
:1054C0008093710681E796E0909367048093660469
:1054D0008CEC9FE09093DF048093DE0481EB9FE0EF
:1054E0009093E7048093E60485ED91E090936E0637
:1054F00080936D068DE696E0909365048093640436
:105500001092700610926F0685E892E19093E10484
:105510008093E00481EC91E090936C0680936B069D
:105520008DEA91E090931E0680931D061092670607
:105530008FEF8093680610926A0610926906E7E47E
:10554000F6E080E2DF011D928A95E9F789E991E0B2
:105550009093E3058093E205E4EEF5E0A2EEB5E07A
:1055600090E58FEF948315821082118282831382DB
:105570001682379626E0EC31F207A1F710921C064E
:105580008FEF12968C93129714968C93149718960B
:105590001C92189715961C921597179696E0AA31AB
:1055A000B90779F725E831E0309364052093630566
:1055B0001092DB051092DA051092DD051092DC05E1
:1055C0001092DF051092DE051092E1051092E005C1
:1055D0008093850583E695E00E94F51A8DE492E0BC
:1055E00090935D0580935C0510925E058FEF9FEFB1
:1055F0009093600580935F0529E332E03093550571
:105600002093540510925B0510925A05909357050C
:1056100080935605909359058093580585E292E052
:10562000909353058093520581E791E0909326056E
:105630008093250585E295E090936304809362044E
:105640008BE695E19093E5048093E40486EF9EE178
:105650009093ED048093EC04E7E2F5E0119211924F
:10566000A5E0E135FA07D1F71092510581E192E00A
:1056700090930C0580930B058DE591E090930005C8
:105680008093FF0410920105109202051092030509
:105690001092040510920505109206051092070558
:1056A0001092080581E090E090930A058093090527
:1056B00089E491E09093F4048093F3048FEF9FEFDB
:1056C0009093F6048093F5041092F7041092F80476
:1056D0001092F9041092FA0410925E0410925F0482
:1056E00010926004109261040E94E1056093FB0433
:1056F0007093FC048093FD049093FE0408957894C5
:1057000084B5826084BD84B5816084BD85B58260C6
:1057100085BD85B5816085BD80916E008160809377
:105720006E001092810080918100826080938100E0
:1057300080918100816080938100809180008160F0
:10574000809380008091B10084608093B10080914B
:10575000B00081608093B00080917A008460809373
:105760007A0080917A00826080937A0080917A003A
:10577000816080937A0080917A00806880937A00BB
:105780001092C10080E692E090936B0480936A04CB
:1057900083E080936C0480936D0440E052EC61E000
:1057A00070E085EB93E00E94C5031092B90310925C
:1057B000BA031092BB031092BC0385EB93E0909365
:1057C00069048093680481E08093DD048091F00493
:1057D00081113EC061E08DE00E943805C3E062EDBA
:1057E00070E080E090E00E94AE0561E08DE00E94F4
:1057F0000A0568E270E080E090E00E94AE0560E09B
:105800008DE00E940A05C15051F76AEF70E080E018
:1058100090E00E94AE05C3E062ED70E080E090E0B1
:105820000E94AE0561E08DE00E940A0568E270E02A
:1058300080E090E00E94AE0560E08DE00E940A05E5
:10584000C15051F76DE770E080E090E00E94AE0536
:105850000E94A10380916C04882341F08091680428
:1058600090916904892B11F00E94DB128AE694E082
:105870000E942C1383E796E00E94250481E796E0BE
:105880000E9425048DE696E00E9425048BE696E0B2
:105890000E9425048BE095E00E9425048DE196E0AE
:1058A0000E94250483E695E00E9425048FEF94E092
:1058B0000E94250482EE95E00E9425048CE595E087
:1058C0000E94250484E595E00E94250482E595E088
:1058D0000E94250483EF94E00E94250483E49FE066
:1058E0009093E9048093E8041092B1041092B304F9
:1058F0001092B20410926E040E94350490E0292E9A
:1059000090E0392EFF24F39422E0E22E3FE6D32EDE
:1059100047EFC42E04E010E0809168049091690480
:10592000DC01ED91FC910084F185E02D0995892B36
:1059300099F50E94E105609301057093020580933B
:105940000305909304058090050590900605A090AE
:105950000705B09008054090090550900A05712C84
:10596000612C9B01AC01281939094A095B094216CF
:1059700053066406750608F477C160E085E295E099
:105980000E94FF0E2114310439F20E94CD068823B3
:1059900019F20E940000C0CF8091680490916904C0
:1059A000EC01E881F9810284F385E02D09958F3FB0
:1059B000980791F1382F8F3F59F41092B10410924B
:1059C000B3041092B20410926E040E94350424C0F5
:1059D0002091B104222309F487C06091B204709130
:1059E000B304873F09F065C01092B10461157105D9
:1059F00099F0809171048137C9F0893709F04DC061
:105A000080916C04882341F080916804909169042E
:105A1000892B11F00E94DB1280916E0481117CCFE2
:105A20008091B104882309F484CF76CFE091EA0411
:105A3000F091EB04309781F3DB011197B7FDDB01A7
:105A4000B595A795BA2EAA2339F328E634E041E7A5
:105A500054E090E0E901AA84EA01A992AE01BE01F6
:105A600061507109E9018B858795882787958A0D93
:105A7000EB0188839F5F2E5F3F4F9B1558F3BB2739
:105A8000A859BB4F18968C911897882311F0199636
:105A90001C9281E794E00995BFCFE091EC04F0916E
:105AA000ED04309709F4B8CF615042E754E009950E
:105AB000B3CF6034710569F486E894E00E942C133A
:105AC0001092B1041092B3041092B20410926E04BA
:105AD000A3CFFB01E859FB4F81876F5F7F4F709326
